:020000040800F2
:100000007006002089010008910100089301000892
:100010009501000897010008990100080000000000
:100020000000000000000000000000009B0100082C
:100030009D010008000000009F010008A1010008C8
:10004000A3010008A3010008A3010008A301000800
:10005000A3010008A3010008A3010008A3010008F0
:10006000A3010008A3010008A3010008A3010008E0
:10007000A3010008A3010008A3010008A3010008D0
:10008000A3010008A3010008A3010008A3010008C0
:10009000A3010008A3010008A3010008A3010008B0
:1000A000A3010008A3010008A3010008A3010008A0
:1000B000A3010008A3010008A3010008A301000890
:1000C000A3010008A3010008A3010008A301000880
:1000D000A3010008A3010008A3010008A301000870
:1000E000A3010008A3010008A301000800F002F822
:1000F00000F03AF80AA090E8000C82448344AAF188
:100100000107DA4501D100F02FF8AFF2090EBAE885
:100110000F0013F0010F18BFFB1A43F0010318473B
:10012000580A0000780A0000103A24BF78C878C145
:10013000FAD8520724BF30C830C144BF04680C60ED
:10014000704700000023002400250026103A28BF35
:1001500078C1FBD8520728BF30C148BF0B60704739
:100160001FB51FBD10B510BD00F031F81146FFF7E7
:10017000F7FF00F069FB00F04FF803B4FFF7F2FF60
:1001800003BC00F057F800000948804709480047C1
:10019000FEE7FEE7FEE7FEE7FEE7FEE7FEE7FEE737
:1001A000FEE7FEE704480549054A064B7047000094
:1001B00071030008ED0000087000002070060020A8
:1001C000700200207002002070477047704775462B
:1001D00000F02CF8AE4605006946534620F00700B3
:1001E000854618B020B5FFF7DDFFBDE820404FF091
:1001F00000064FF000074FF000084FF0000BAC4630
:10020000ACE8C009ACE8C009ACE8C009ACE8C0097A
:1002100021F007018D46704710B50446AFF300800A
:100220002046BDE81040FFF7A8BF00000048704717
:100230000800002001491820ABBEFEE7260002009E
:100240007047000080B500F001F880BD84B0002048
:100250000390029041F20001C4F20201086840F4E8
:1002600080300860FFE741F20000C4F2020000683D
:1002700000F400300290039801300390FFE70299E8
:100280000020019039B9FFE70398B0F5A06018BFCE
:1002900001200190FFE70198C0070028E3D1FFE7A4
:1002A00041F20000C4F2020000688003002803D578
:1002B000FFE70120029002E000200290FFE7029891
:1002C000012851D1FFE742F20001C4F2020108689F
:1002D00040F010000860086820F007000860086817
:1002E00040F00200086041F20401C4F202010091F2
:1002F0000868086008680860086840F48060086062
:10030000086820F47C100860086840F4E810086071
:1003100041F20001C4F20201086840F080700860F8
:10032000FFE741F20000C4F20200006880010028EB
:1003300001D4FFE7F5E741F20401C4F202010868C5
:1003400020F003000860086840F002000860FFE742
:1003500041F20400C4F20200006800F00C0008281A
:1003600001D0FFE7F4E700E0FFE704B070470000CA
:1003700080B541F20002C4F20202106840F00100B0
:10038000106041F20401C4F2020108680023CFF6B4
:10039000FF031840086010684FF6FF73CFF6F6634E
:1003A00018401060106820F480201060086820F465
:1003B000FE00086041F20801C4F202014FF41F0080
:1003C0000860FFF73FFF4EF60851CEF200014FF0F4
:1003D0000060086080BD000080B582B001909DF88B
:1003E0000500C006002809D5FFE740F20101C2F26E
:1003F00000010120087000F02FF80FE09DF80500C3
:100400008006002809D5FFE740F20101C2F2000191
:100410000220087000F020F8FFE7FFE79DF80500D4
:100420004006002815D5FFE740F20000C2F20000A8
:1004300001781931017000784C2807DBFFE740F2A2
:100440000001C2F2000119200870FFE700F004F873
:10045000FFE702B080BD000080B500F041F840F633
:100460006430C0F6000000F055F940F20100C2F21D
:100470000000007800F006FAC02000F0EFF840F627
:100480006D30C0F6000000F045F940F20000C2F205
:100490000000007800F0F6F980BD000042F234411F
:1004A000C4F201010920086042F20841C4F20101CE
:1004B00001200860FFE742F20040C4F2010000683A
:1004C0008007002801D4FFE7F5E742F24C40C4F270
:1004D0000100006840F26801C2F200010860704744
:1004E00080B5012000F0BAF8022000F0B7F880BD16
:1004F00083B0ADF80A0000200190ADF80200FFE7DC
:10050000BDF80200BDF80A10884215DAFFE70020A6
:100510000190FFE7019841F26F71884205D8FFE72B
:10052000FFE7019801300190F4E7FFE7BDF8020012
:100530000130ADF80200E3E703B0704783B0ADF8D7
:100540000A0000200190ADF80200FFE7BDF80200AC
:10055000BDF80A10884213DAFFE700200190FFE798
:100560000198052805D8FFE7FFE7019801300190C1
:10057000F6E7FFE7BDF802000130ADF80200E5E75D
:1005800003B0704780B541F21801C4F20201086857
:1005900040F0010008600422C4F20102106840F03B
:1005A00000701060086840F43F70086041F21C0160
:1005B000C4F20201086840F00200086040F6000141
:1005C000C4F2010144F24440C4F23430086040F601
:1005D0000401C4F2010143F24340C3F24340086006
:1005E00040F60041C4F2010144F20B30C3F2443042
:1005F000086040F60441C4F201014FF04430086045
:1006000041F20401C4F2010143F23330C4F2434029
:10061000086042F20841C4F201010120086042F280
:100620001041C4F201010820086040F21C41C4F2EC
:1006300000016020088040F22041C4F200014FF424
:100640008070088040F22841C4F20001092008802F
:1006500000F028F8FFF700FF80BD000080B582B0F1
:100660008DF8070040F60C01C4F20101086820F47F
:10067000004008609DF8070000F068F802B080BDF7
:1006800080B582B08DF8070040F60C01C4F201017C
:10069000086840F4004008609DF8070000F056F834
:1006A00002B080BD80B582B00F20FFF721FF40F679
:1006B0000C01C4F20101086820F480500860032096
:1006C0000190FFF715FF3320FFF7C8FF0520FFF764
:1006D0000FFF3220FFF7C2FF40F6B830FFF72EFFC2
:1006E0002820FFF7BBFF0198FFF702FF0E20FFF75E
:1006F000B5FF0198FFF7FCFE0120FFF7AFFF01985F
:10070000FFF7F6FE0620FFF7A9FF0198FFF7F0FEBE
:1007100002B080BD80B582B0019000208DF803004A
:10072000FFE701989DF80310405C60B1FFE7019876
:100730009DF80310405CFFF7A3FF9DF80300013014
:100740008DF80300EDE702B080BD000080B588B0F1
:100750008DF81F0000200190ADF81C0040F6140138
:10076000C4F2010104914FF41660009008609DF8F6
:100770001F0000F0F000ADF81C00BDF81C000009DF
:10078000ADF81C00BDF81C1001F00800000201F0DB
:10079000040240EAC20001F0020240EA421001F005
:1007A000010140EA012040F61001C4F2010102916A
:1007B000086040F60C01C4F201010591086840F49C
:1007C0008050086003200390FFF792FE05990868A7
:1007D00020F48050086001200690FFF789FEDDF8C4
:1007E00000C00199029B0398059ADDF810E0CEF84D
:1007F00000C0ADF81C109DF81F1001F00F01ADF8FE
:100800001C10BDF81CC00CF0080109020CF0040E0D
:1008100041EACE010CF0020E41EA4E110CF0010C3F
:1008200041EA0C211960116841F480511160FFF711
:100830005FFE059A0698116821F480511160FFF758
:1008400057FE08B080BD000080B582B00020019046
:10085000FFF798FEFFE7FFF721FE40F60800C4F21D
:1008600001000068C04340F60841C4F20101096874
:10087000C94341F20802C4F201021268D24300F0F7
:1008800083F8E8E780B584B0ADF80E00BDF80E003F
:1008900048F21F51C5F2EB11A0FB0110400946F2CE
:1008A0006761C6F26661019180FB0121890801EB55
:1008B0008101A0EB41003030C0B2FFF7E1FE0199A9
:1008C000BDF80E004CF6CD42CCF6CC420292A0FB15
:1008D0000220C00880FB0121890801EB8101A0EB07
:1008E00041003030C0B2FFF7CBFE0299BDF80E00D8
:1008F000A0FB0121C90801EB8101A0EB410040F000
:100900003000FFF7BDFE04B080BD000081B0ADF83F
:100910000200BDF8020040F26801C2F200010A685C
:1009200048F21F51C5F2EB11A2FB013200EBD200DD
:1009300040F22842C4F200021288013242434AF2D5
:100940000020C0F24A40B0FBF2F0421E40F22C40C0
:10095000C4F2000002800088013040F20002C2F2BE
:10096000000212785043A0FB0110400940F23C41C4
:10097000C4F20001088040F20041C4F200010120ED
:10098000088001B07047000080B584B003900291E8
:1009900001920298FFF720FD9DF8080080060028CC
:1009A0000BD5FFE740F20100C2F20000007800EB37
:1009B00040108000FFF7AAFFD2E09DF80900400731
:1009C00000280AD5FFE740F20100C2F200000078DB
:1009D0008C214843FFF79AFFC1E09DF80800C0064C
:1009E00000280AD5FFE740F20100C2F200000078BB
:1009F00094214843FFF78AFFB0E09DF80C00000601
:100A000000280AD5FFE740F20100C2F2000000789A
:100A10009D214843FFF77AFF9FE09DF808000007FB
:100A200000280AD5FFE740F20100C2F2000000787A
:100A3000A6214843FFF76AFF8EE09DF80C000007EF
:100A400000280AD5FFE740F20100C2F2000000785A
:100A5000B0214843FFF75AFF7DE09DF805000006EE
:100A600000280AD5FFE740F20100C2F2000000783A
:100A7000BB214843FFF74AFF6CE09DF80C00C0061D
:100A800000280AD5FFE740F20100C2F2000000781A
:100A9000BD214843FFF73AFF5BE09DF805004006A3
:100AA00000280AD5FFE740F20100C2F200000078FA
:100AB000D1214843FFF72AFF4AE09DF80900C0070B
:100AC00050B1FFE740F20100C2F200000078DE21E1
:100AD0004843FFF71BFF3AE09DF805008006002819
:100AE0000AD5FFE740F20100C2F200000078EB21D6
:100AF0004843FFF70BFF29E09DF809008007002815
:100B00000AD5FFE740F20100C2F200000078F921A7
:100B10004843FFF7FBFE18E09DF809000007002896
:100B20000BD5FFE740F20100C2F20000007800EBB5
:100B300040108000FFF7EAFE06E040F23C41C4F2BC
:100B4000000100200880FFE7FFE7FFE7FFE7FFE77E
:100B5000FFE7FFE7FFE7FFE7FFE7FFE7FFE7FFE765
:100B600004B080BD4F69746176613A2000436963C7
:100B70006C6F3A2000000000980B00080000002075
:100B80000800000028010008A00B00080800002051
:100B90006806000044010008190100000000000080
:04000005080000ED02
:00000001FF
